{
    "_format": "hh-sol-artifact-1",
    "contractName": "MeRealms",
    "sourceName": "contracts/MeRealms.sol",
    "abi": [
        {
            "anonymous": false,
            "inputs": [
                {
                    "indexed": true,
                    "internalType": "uint256",
                    "name": "memeId",
                    "type": "uint256"
                },
                {
                    "indexed": false,
                    "internalType": "string",
                    "name": "title",
                    "type": "string"
                },
                {
                    "indexed": false,
                    "internalType": "string",
                    "name": "url",
                    "type": "string"
                },
                {
                    "indexed": true,
                    "internalType": "address",
                    "name": "creator",
                    "type": "address"
                }
            ],
            "name": "MemeSubmitted",
            "type": "event"
        },
        {
            "anonymous": false,
            "inputs": [
                {
                    "indexed": true,
                    "internalType": "uint256",
                    "name": "memeId",
                    "type": "uint256"
                },
                {
                    "indexed": true,
                    "internalType": "address",
                    "name": "supporter",
                    "type": "address"
                },
                {
                    "indexed": false,
                    "internalType": "uint256",
                    "name": "amount",
                    "type": "uint256"
                }
            ],
            "name": "SupportSent",
            "type": "event"
        },
        {
            "inputs": [
                {
                    "internalType": "uint256",
                    "name": "_memeId",
                    "type": "uint256"
                }
            ],
            "name": "getMeme",
            "outputs": [
                {
                    "internalType": "uint256",
                    "name": "id",
                    "type": "uint256"
                },
                {
                    "internalType": "string",
                    "name": "title",
                    "type": "string"
                },
                {
                    "internalType": "string",
                    "name": "url",
                    "type": "string"
                },
                {
                    "internalType": "address",
                    "name": "creator",
                    "type": "address"
                },
                {
                    "internalType": "uint256",
                    "name": "supportAmount",
                    "type": "uint256"
                }
            ],
            "stateMutability": "view",
            "type": "function"
        },
        {
            "inputs": [],
            "name": "memeCount",
            "outputs": [
                {
                    "internalType": "uint256",
                    "name": "",
                    "type": "uint256"
                }
            ],
            "stateMutability": "view",
            "type": "function"
        },
        {
            "inputs": [
                {
                    "internalType": "uint256",
                    "name": "",
                    "type": "uint256"
                }
            ],
            "name": "memes",
            "outputs": [
                {
                    "internalType": "uint256",
                    "name": "id",
                    "type": "uint256"
                },
                {
                    "internalType": "string",
                    "name": "title",
                    "type": "string"
                },
                {
                    "internalType": "string",
                    "name": "url",
                    "type": "string"
                },
                {
                    "internalType": "address",
                    "name": "creator",
                    "type": "address"
                },
                {
                    "internalType": "uint256",
                    "name": "supportAmount",
                    "type": "uint256"
                }
            ],
            "stateMutability": "view",
            "type": "function"
        },
        {
            "inputs": [
                {
                    "internalType": "string",
                    "name": "_title",
                    "type": "string"
                },
                {
                    "internalType": "string",
                    "name": "_url",
                    "type": "string"
                }
            ],
            "name": "submitMeme",
            "outputs": [],
            "stateMutability": "nonpayable",
            "type": "function"
        },
        {
            "inputs": [
                {
                    "internalType": "uint256",
                    "name": "_memeId",
                    "type": "uint256"
                }
            ],
            "name": "supportCreator",
            "outputs": [],
            "stateMutability": "payable",
            "type": "function"
        }
    ],
    "bytecode": "0x6080604052348015600f57600080fd5b5061113f8061001f6000396000f3fe60806040526004361061004a5760003560e01c8063388f60641461004f5780633dea6b9a146100905780637b2124d2146100d1578063843d6454146100fc578063aba790ff14610125575b600080fd5b34801561005b57600080fd5b5061007660048036038101906100719190610863565b610141565b604051610087959493929190610970565b60405180910390f35b34801561009c57600080fd5b506100b760048036038101906100b29190610863565b6102a7565b6040516100c8959493929190610970565b60405180910390f35b3480156100dd57600080fd5b506100e66104dd565b6040516100f391906109d1565b60405180910390f35b34801561010857600080fd5b50610123600480360381019061011e9190610b21565b6104e3565b005b61013f600480360381019061013a9190610863565b61062f565b005b600160205280600052604060002060009150905080600001549080600101805461016a90610bc8565b80601f016020809104026020016040519081016040528092919081815260200182805461019690610bc8565b80156101e35780601f106101b8576101008083540402835291602001916101e3565b820191906000526020600020905b8154815290600101906020018083116101c657829003601f168201915b5050505050908060020180546101f890610bc8565b80601f016020809104026020016040519081016040528092919081815260200182805461022490610bc8565b80156102715780601f1061024657610100808354040283529160200191610271565b820191906000526020600020905b81548152906001019060200180831161025457829003601f168201915b5050505050908060030160009054906101000a900473ffffffffffffffffffffffffffffffffffffffff16908060040154905085565b60006060806000806000861180156102c157506000548611155b610300576040517f08c379a00000000000000000000000000000000000000000000000000000000081526004016102f790610c45565b60405180910390fd5b6000600160008881526020019081526020016000206040518060a00160405290816000820154815260200160018201805461033a90610bc8565b80601f016020809104026020016040519081016040528092919081815260200182805461036690610bc8565b80156103b35780601f10610388576101008083540402835291602001916103b3565b820191906000526020600020905b81548152906001019060200180831161039657829003601f168201915b505050505081526020016002820180546103cc90610bc8565b80601f01602080910402602001604051908101604052809291908181526020018280546103f890610bc8565b80156104455780601f1061041a57610100808354040283529160200191610445565b820191906000526020600020905b81548152906001019060200180831161042857829003601f168201915b505050505081526020016003820160009054906101000a900473ffffffffffffffffffffffffffffffffffffffff1673ffffffffffffffffffffffffffffffffffffffff1673ffffffffffffffffffffffffffffffffffffffff168152602001600482015481525050905080600001518160200151826040015183606001518460800151955095509550955095505091939590929450565b60005481565b6000808154809291906104f590610c94565b91905055506040518060a0016040528060005481526020018381526020018281526020013373ffffffffffffffffffffffffffffffffffffffff1681526020016000815250600160008054815260200190815260200160002060008201518160000155602082015181600101908161056d9190610e88565b5060408201518160020190816105839190610e88565b5060608201518160030160006101000a81548173ffffffffffffffffffffffffffffffffffffffff021916908373ffffffffffffffffffffffffffffffffffffffff160217905550608082015181600401559050503373ffffffffffffffffffffffffffffffffffffffff166000547fa1944ae00a5628e7cc48fae5a1a31679dd785aad515fd97e9b9368ea52b177018484604051610623929190610f5a565b60405180910390a35050565b60008111801561064157506000548111155b610680576040517f08c379a000000000000000000000000000000000000000000000000000000000815260040161067790610c45565b60405180910390fd5b600034116106c3576040517f08c379a00000000000000000000000000000000000000000000000000000000081526004016106ba90611003565b60405180910390fd5b6000600160008381526020019081526020016000209050348160040160008282546106ee9190611023565b9250508190555060008160030160009054906101000a900473ffffffffffffffffffffffffffffffffffffffff1673ffffffffffffffffffffffffffffffffffffffff163460405161073f90611088565b60006040518083038185875af1925050503d806000811461077c576040519150601f19603f3d011682016040523d82523d6000602084013e610781565b606091505b50509050806107c5576040517f08c379a00000000000000000000000000000000000000000000000000000000081526004016107bc906110e9565b60405180910390fd5b3373ffffffffffffffffffffffffffffffffffffffff16837f5da62a14bbd8e959a07c5137e0b31d8242003a57aa25bd2891f444bca129007d3460405161080c91906109d1565b60405180910390a3505050565b6000604051905090565b600080fd5b600080fd5b6000819050919050565b6108408161082d565b811461084b57600080fd5b50565b60008135905061085d81610837565b92915050565b60006020828403121561087957610878610823565b5b60006108878482850161084e565b91505092915050565b6108998161082d565b82525050565b600081519050919050565b600082825260208201905092915050565b60005b838110156108d95780820151818401526020810190506108be565b60008484015250505050565b6000601f19601f8301169050919050565b60006109018261089f565b61090b81856108aa565b935061091b8185602086016108bb565b610924816108e5565b840191505092915050565b600073ffffffffffffffffffffffffffffffffffffffff82169050919050565b600061095a8261092f565b9050919050565b61096a8161094f565b82525050565b600060a0820190506109856000830188610890565b818103602083015261099781876108f6565b905081810360408301526109ab81866108f6565b90506109ba6060830185610961565b6109c76080830184610890565b9695505050505050565b60006020820190506109e66000830184610890565b92915050565b600080fd5b600080fd5b7f4e487b7100000000000000000000000000000000000000000000000000000000600052604160045260246000fd5b610a2e826108e5565b810181811067ffffffffffffffff82111715610a4d57610a4c6109f6565b5b80604052505050565b6000610a60610819565b9050610a6c8282610a25565b919050565b600067ffffffffffffffff821115610a8c57610a8b6109f6565b5b610a95826108e5565b9050602081019050919050565b82818337600083830152505050565b6000610ac4610abf84610a71565b610a56565b905082815260208101848484011115610ae057610adf6109f1565b5b610aeb848285610aa2565b509392505050565b600082601f830112610b0857610b076109ec565b5b8135610b18848260208601610ab1565b91505092915050565b60008060408385031215610b3857610b37610823565b5b600083013567ffffffffffffffff811115610b5657610b55610828565b5b610b6285828601610af3565b925050602083013567ffffffffffffffff811115610b8357610b82610828565b5b610b8f85828601610af3565b9150509250929050565b7f4e487b7100000000000000000000000000000000000000000000000000000000600052602260045260246000fd5b60006002820490506001821680610be057607f821691505b602082108103610bf357610bf2610b99565b5b50919050565b7f496e76616c6964206d656d652049442e00000000000000000000000000000000600082015250565b6000610c2f6010836108aa565b9150610c3a82610bf9565b602082019050919050565b60006020820190508181036000830152610c5e81610c22565b9050919050565b7f4e487b7100000000000000000000000000000000000000000000000000000000600052601160045260246000fd5b6000610c9f8261082d565b91507fffffffffffffffffffffffffffffffffffffffffffffffffffffffffffffffff8203610cd157610cd0610c65565b5b600182019050919050565b60008190508160005260206000209050919050565b60006020601f8301049050919050565b600082821b905092915050565b600060088302610d3e7fffffffffffffffffffffffffffffffffffffffffffffffffffffffffffffffff82610d01565b610d488683610d01565b95508019841693508086168417925050509392505050565b6000819050919050565b6000610d85610d80610d7b8461082d565b610d60565b61082d565b9050919050565b6000819050919050565b610d9f83610d6a565b610db3610dab82610d8c565b848454610d0e565b825550505050565b600090565b610dc8610dbb565b610dd3818484610d96565b505050565b5b81811015610df757610dec600082610dc0565b600181019050610dd9565b5050565b601f821115610e3c57610e0d81610cdc565b610e1684610cf1565b81016020851015610e25578190505b610e39610e3185610cf1565b830182610dd8565b50505b505050565b600082821c905092915050565b6000610e5f60001984600802610e41565b1980831691505092915050565b6000610e788383610e4e565b9150826002028217905092915050565b610e918261089f565b67ffffffffffffffff811115610eaa57610ea96109f6565b5b610eb48254610bc8565b610ebf828285610dfb565b600060209050601f831160018114610ef25760008415610ee0578287015190505b610eea8582610e6c565b865550610f52565b601f198416610f0086610cdc565b60005b82811015610f2857848901518255600182019150602085019450602081019050610f03565b86831015610f455784890151610f41601f891682610e4e565b8355505b6001600288020188555050505b505050505050565b60006040820190508181036000830152610f7481856108f6565b90508181036020830152610f8881846108f6565b90509392505050565b7f537570706f727420616d6f756e74206d7573742062652067726561746572207460008201527f68616e207a65726f2e0000000000000000000000000000000000000000000000602082015250565b6000610fed6029836108aa565b9150610ff882610f91565b604082019050919050565b6000602082019050818103600083015261101c81610fe0565b9050919050565b600061102e8261082d565b91506110398361082d565b925082820190508082111561105157611050610c65565b5b92915050565b600081905092915050565b50565b6000611072600083611057565b915061107d82611062565b600082019050919050565b600061109382611065565b9150819050919050565b7f5472616e7366657220746f2063726561746f72206661696c65642e0000000000600082015250565b60006110d3601b836108aa565b91506110de8261109d565b602082019050919050565b60006020820190508181036000830152611102816110c6565b905091905056fea2646970667358221220ddc62570b8f337fe47a05a0d59b50636785244460e1277d351f20f1eff217ab764736f6c634300081b0033",
    "linkReferences": {},
    "deployedLinkReferences": {}
}